{
  "contractName": "CarExchange",
  "abi": [
    {
      "anonymous": false,
      "inputs": [
        {
          "indexed": false,
          "name": "_vinNumber",
          "type": "string"
        },
        {
          "indexed": true,
          "name": "_owner",
          "type": "address"
        }
      ],
      "name": "Registered",
      "type": "event"
    },
    {
      "constant": false,
      "inputs": [
        {
          "name": "_owner",
          "type": "address"
        },
        {
          "name": "_vinNumber",
          "type": "string"
        }
      ],
      "name": "register",
      "outputs": [
        {
          "name": "",
          "type": "bool"
        }
      ],
      "payable": false,
      "stateMutability": "nonpayable",
      "type": "function"
    }
  ],
  "bytecode": "0x608060405234801561001057600080fd5b50610553806100206000396000f300608060405260043610610041576000357c0100000000000000000000000000000000000000000000000000000000900463ffffffff16806332434a2e14610046575b600080fd5b34801561005257600080fd5b506100cd600480360381019080803573ffffffffffffffffffffffffffffffffffffffff169060200190929190803590602001908201803590602001908080601f01602080910402602001604051908101604052809392919081815260200183838082843782019150505050505091929192905050506100e7565b604051808215151515815260200191505060405180910390f35b600060606100f483610275565b15151561010057600080fd5b600154600180540111151561011457600080fd5b8290506011815114151561012757600080fd5b60016000815480929190600101919050555083600080600154815260200190815260200160002060000160006101000a81548173ffffffffffffffffffffffffffffffffffffffff021916908373ffffffffffffffffffffffffffffffffffffffff16021790555082600080600154815260200190815260200160002060010190805190602001906101ba929190610482565b508373ffffffffffffffffffffffffffffffffffffffff167f50f74ca45caac8020b8d891bd13ea5a2d79564986ee6a839f0d914896388322d846040518080602001828103825283818151815260200191508051906020019080838360005b83811015610234578082015181840152602081019050610219565b50505050905090810190601f1680156102615780820380516001836020036101000a031916815260200191505b509250505060405180910390a25092915050565b600080610281836102a3565b905060008160ff161415610298576000915061029d565b600191505b50919050565b600080600190505b6001548160ff161115156102f4576102da6000808360ff168152602001908152602001600020600101846102ff565b156102e7578091506102f9565b80806001019150506102ab565b600091505b50919050565b600080606060008592508491508151838054600181600116156101000203166002900490501415156103345760009350610479565b600090505b8280546001816001161561010002031660029004905081101561047457818181518110151561036457fe5b9060200101517f010000000000000000000000000000000000000000000000000000000000000090047f0100000000000000000000000000000000000000000000000000000000000000027effffffffffffffffffffffffffffffffffffffffffffffffffffffffffffff1916838281546001816001161561010002031660029004811015156103f057fe5b81546001161561040f5790600052602060002090602091828204019190065b9054901a7f0100000000000000000000000000000000000000000000000000000000000000027effffffffffffffffffffffffffffffffffffffffffffffffffffffffffffff19161415156104675760009350610479565b8080600101915050610339565b600193505b50505092915050565b828054600181600116156101000203166002900490600052602060002090601f016020900481019282601f106104c357805160ff19168380011785556104f1565b828001600101855582156104f1579182015b828111156104f05782518255916020019190600101906104d5565b5b5090506104fe9190610502565b5090565b61052491905b80821115610520576000816000905550600101610508565b5090565b905600a165627a7a7230582073b5b9f11452a6ef1f786a1316c0f9a51c978b089a76385176bca21903659e0d0029",
  "source": "pragma solidity 0.4.24;\n\n\ncontract CarExchange {\n  struct RegisteredCars {\n    address carOwner;\n    string vinNumber;\n  }\n  mapping (uint => RegisteredCars) registeredCars;\n  uint carNameIndex;\n\n  //EVENTS//\n  event Registered(string _vinNumber, address indexed _owner);\n//  event Bought(uint indexed _vinNumber, address indexed _oldOwner, address indexed _newOwner, uint _value);\n//  event Listed(uint indexed _vinNumber, address indexed _carOwner, uint _value);\n\n  // register a car\n  //_vinNumber is a Vehicle Identification Number and contains 17 characters (digits and capital letters)\n  // start of implementation function register(address _owner, string _vinNumber)\n\n  function register(address _owner, string _vinNumber) public returns (bool){\n    require(!hasCar(_vinNumber));\n    require(carNameIndex + 1 > carNameIndex);\n    bytes memory str = bytes(_vinNumber);\n    require(str.length == 17);\n    carNameIndex++;\n    registeredCars[carNameIndex].carOwner = _owner;\n    registeredCars[carNameIndex].vinNumber = _vinNumber;\n    emit Registered(_vinNumber, _owner);\n  }\n\n  function hasCar(string vinNumber) internal view returns (bool) {\n        uint8 index = getCarIndex(vinNumber);\n        if (index == 0) {\n            return false;\n        }\n        return true;\n    }\n\n    //We must check if the car with such vinNumber already exist\n    function getCarIndex(string vinNumber) internal view returns (uint8) {\n        for (uint8 i = 1; i <= carNameIndex; i++) {\n            if (stringsEqual(registeredCars[i].vinNumber, vinNumber)) {\n                return i;\n            }\n        }\n        return 0;\n    }\n  // end of implementation function register(address _owner, string _vinNumber)\n\n  // buy a car by _vinNumber that is listed for sale\n  /* function buy(uint _vinNumber, uint _value) public returns (bool success){\n\n  } */\n\n  // list a car for sale by _vinNumber\n  /* function list(uint _vinNumber, uint _value) public returns (bool success){\n\n  } */\n\n  // ownedCars display a list of cars belonging to an owner\n  /* function ownedCars( address _owner) external view returns (uint[] vinNumbers){\n\n  } */\n\n\n\n  // STRING COMPARISON FUNCTION //\n\n  function stringsEqual(string storage _a, string memory _b) internal view returns (bool) {\n    bytes storage a = bytes(_a);\n    bytes memory b = bytes(_b);\n      if (a.length != b.length) {\n        return false;\n      }\n      // @todo unroll this loop\n      for (uint i = 0; i < a.length; i ++) {\n        if (a[i] != b[i]) {\n          return false;\n        }\n      }\n      return true;\n  }\n}\n",
  "sourcePath": "/Users/vanijatko/Documents/projects/study/ethereum/CarExchange/contracts/CarExchange.sol",
  "compiler": {
    "name": "solc",
    "version": "0.4.24+commit.e67f0147.Emscripten.clang"
  },
  "schemaVersion": "2.0.1",
  "updatedAt": "2018-10-02T09:18:27.086Z"
}